:020000040800F2
:1000000000500020FD620008355C0008415C0008DB
:10001000475C00084D5C0008535C000800000000CD
:10002000000000000000000000000000595C000813
:10003000655C000800000000715C00087D5C000841
:1000400045630008456300084563000845630008F0
:1000500045630008456300084563000845630008E0
:1000600045630008456300084563000845630008D0
:1000700045630008456300084563000845630008C0
:1000800045630008456300084563000845630008B0
:10009000456300084563000845630008895C000863
:1000A0004563000845630008456300084563000890
:1000B0004563000845630008A55C00084563000827
:1000C0004563000845630008456300084563000870
:1000D00045630008015D00084563000845630008AA
:1000E0004563000845630008456300080000000000
:1000F0000000000000000000000000000000000000
:0C01000000000000000000005FF808F1A3
:10010C0010B5054C237833B9044B13B10448AFF345
:10011C0000800123237010BD90000020000000001F
:10012C00B863000808B5034B1BB103490348AFF390
:10013C00008008BD0000000094000020B863000897
:10014C0080B500AF084A084B1B6843F010031360DE
:10015C00032000F03FF9002000F008F805F032FD14
:10016C000023184680BD00BF0020024080B582B03D
:10017C0000AF7860124B1A68124B1B7819464FF47B
:10018C007A73B3FBF1F3B2FBF3F3184600F057F9B3
:10019C000346002B01D001230EE07B680F2B0AD8FD
:1001AC00002279684FF0FF3000F01FF9064A7B6897
:1001BC001360002300E0012318460837BD4680BDBC
:1001CC008C000020040000200000002080B400AF50
:1001DC00054B1B781A46054B1B681344034A1360E6
:1001EC0000BFBD4680BC7047040000204C010020BD
:1001FC0080B400AF024B1B681846BD4680BC7047EC
:10020C004C01002080B584B000AF7860FFF7F0FFA0
:10021C00B8607B68FB60FB68B3F1FF3F05D0094B0E
:10022C001B781A46FB681344FB6000BFFFF7E0FF26
:10023C000246BB68D21AFB689A42F7D300BF10374C
:10024C00BD4680BD0400002080B485B000AF78604E
:10025C007B6803F00703FB600C4BDB68BB60BA6880
:10026C004FF6FF031340BB60FB681A02BB681343D5
:10027C0043F0BF6343F40033BB60044ABB68D360F4
:10028C0000BF1437BD4680BC704700BF00ED00E0D6
:10029C0080B400AF044BDB681B0A03F0070318465D
:1002AC00BD4680BC704700BF00ED00E080B483B059
:1002BC0000AF0346FB71084997F907305B09FA79DF
:1002CC0002F01F02012000FA02F241F8232000BFC5
:1002DC000C37BD4680BC704700E100E080B483B0B1
:1002EC0000AF03463960FB7197F90730002B0BDA2E
:1002FC000D49FB7903F00F03043B3A68D2B21201AB
:10030C00D2B20B441A7609E0084997F907303A68DB
:10031C00D2B21201D2B20B4483F8002300BF0C37C7
:10032C00BD4680BC704700BF00ED00E000E100E07E
:10033C0080B489B000AFF860B9607A60FB6803F0F4
:10034C000703FB61FB69C3F10703042B28BF0423DC
:10035C00BB61FB690433062B02D9FB69033B00E04C
:10036C0000237B610122BB6902FA03F35A1EBB68AE
:10037C001A407B699A4001217B6901FA03F3591EEB
:10038C007B680B40134318462437BD4680BC70472E
:10039C0080B582B000AF78607B68013BB3F1807FA1
:1003AC0001D301230FE00A4A7B68013B53600F2104
:1003BC004FF0FF30FFF792FF054B00229A60044B81
:1003CC0007221A60002318460837BD4680BD00BFBF
:1003DC0010E000E080B582B000AF78607868FFF77D
:1003EC0033FF00BF0837BD4680BD80B586B000AF77
:1003FC000346B9607A60FB7300237B61FFF748FF0B
:10040C0078617A68B9687869FFF792FF024697F9C4
:10041C000F3011461846FFF761FF00BF1837BD4675
:10042C0080BD80B582B000AF0346FB7197F90730F1
:10043C001846FFF73BFF00BF0837BD4680BD80B5AF
:10044C0082B000AF78607868FFF7A2FF03461846C9
:10045C000837BD4680BD000080B584B000AF786021
:10046C000023FB737B6893F82130022B05D07B684B
:10047C0004229A630123FB7357E07B681B687A683C
:10048C001268126822F00E021A607B681B687A6888
:10049C001268126822F001021A60264A7B681B68F7
:1004AC001946254B99422ED07B681B681946234B65
:1004BC00994226D07B681B681946214B99421DD066
:1004CC007B681B6819461F4B994214D07B681B68CC
:1004DC0019461D4B99420BD07B681B6819461B4B68
:1004EC00994202D14FF480130EE04FF080730BE071
:1004FC004FF4803308E04FF4805305E04FF48073E1
:10050C0002E0102300E0012353607B68012283F892
:10051C0021207B68002283F820207B685B6B002BFA
:10052C0003D07B685B6B78689847FB7B1846103769
:10053C00BD4680BD00000240080002401C00024085
:10054C003000024044000240580002406C0002405F
:10055C0080B48BB000AF786039600023FB6100235E
:10056C00BB6100237B6100233B6200233B610023C2
:10057C007B6227E101227B6A02FA03F3FB613B6891
:10058C001A68FB691340BB61BA69FB699A4240F077
:10059C0016813B685B68122B34D0122B0DD8022BC2
:1005AC002BD0022B04D8002B31D0012B1CD048E0CF
:1005BC00032B43D0112B1BD043E0874A934226D008
:1005CC00854A934206D8854A934220D0844A934266
:1005DC001DD036E0834A934219D0834A934216D0F9
:1005EC00824A934213D02CE03B68DB683B6228E0E4
:1005FC003B68DB6804333B6223E03B68DB68083311
:10060C003B621EE03B68DB680C333B6219E03B68E5
:10061C009B68002B02D104233B6212E03B689B6871
:10062C00012B05D108233B627B68FA691A6108E04B
:10063C0008233B627B68FA695A6102E000233B6243
:10064C0000BFBB69FF2B01D87B6801E07B680433DA
:10065C00FB60BB69FF2B02D87B6A9B0002E07B6AC4
:10066C00083B9B003B61FB681A680F213B6901FA50
:10067C0003F3DB431A40396A3B6901FA03F31A436B
:10068C00FB681A603B685B6803F08053002B00F03A
:10069C009680574A564B9B6943F001039361544B28
:1006AC009B6903F00103BB60BB68524A7B6A9B08E1
:1006BC00023352F823307B617B6A03F003039B0007
:1006CC000F2202FA03F3DB437A6913407B617B68E8
:1006DC00494A934213D07B68484A93420DD07B68B9
:1006EC00474A934207D07B68464A934201D1032381
:1006FC0006E0042304E0022302E0012300E00023CF
:10070C007A6A02F00302920093407A6913437B6188
:10071C0038497B6A9B0802337A6941F823203B688D
:10072C005B6803F48033002B06D03749364B1A68CC
:10073C00BB6913430B6006E03349334B1A68BB6942
:10074C00DB4313400B603B685B6803F40033002B06
:10075C0006D02D492C4B5A68BB6913434B6006E0FD
:10076C002949294B5A68BB69DB4313404B603B68F2
:10077C005B6803F48013002B06D02349224B9A6844
:10078C00BB6913438B6006E01F491F4B9A68BB691A
:10079C00DB4313408B603B685B6803F40013002B56
:1007AC0006D01949184BDA68BB691343CB6006E0D5
:1007BC001549154BDA68BB69DB431340CB607B6A88
:1007CC0001337B627B6A0F2B7FF6D4AE00BF2C37D4
:1007DC00BD4680BC704700BF000021100000111006
:1007EC000000121000003110000032100000221026
:1007FC00001002400000014000080140000C0140C4
:10080C0000100140001401400004014080B485B088
:10081C0000AF78600B467B807B689A687B881340BE
:10082C00002B02D00123FB7301E00023FB73FB7B45
:10083C0018461437BD4680BC704780B483B000AFF7
:10084C0078600B467B8013467B707B78002B03D043
:10085C007A887B681A6103E07B881A047B681A61CA
:10086C0000BF0C37BD4680BC7047000080B582B01D
:10087C0000AF0346FB80084B5A69FB881340002BE2
:10088C0006D0054AFB885361FB88184603F01AFC16
:10089C0000BF0837BD4680BD0004014080B586B05E
:1008AC0000AF786000233B617B681B6803F0010399
:1008BC00002B00F08780924B5B6803F00C03042B39
:1008CC000CD08F4B5B6803F00C03082B12D18C4BB4
:1008DC005B6803F48033B3F5803F0BD1884B1B6806
:1008EC0003F40033002B6CD07B685B68002B68D161
:1008FC00012329E27B685B68B3F5803F06D1804A0F
:10090C007F4B1B6843F4803313602EE07B685B687D
:10091C00002B0CD17A4A7A4B1B6823F4803313607A
:10092C00774A774B1B6823F4802313601DE07B68A8
:10093C005B68B3F5A02F0CD1714A714B1B6843F463
:10094C00802313606E4A6E4B1B6843F48033136034
:10095C000BE06B4A6A4B1B6823F480331360684AC4
:10096C00674B1B6823F4802313607B685B68002B48
:10097C0013D0FFF73DFC386108E0FFF739FC024665
:10098C003B69D31A012B01D90323DDE15C4B1B68B6
:10099C0003F40033002BF0D014E0FFF729FC38618E
:1009AC0008E0FFF725FC02463B69D31A012B01D95D
:1009BC000323C9E1524B1B6803F40033002BF0D125
:1009CC0000E000BF7B681B6803F00203002B63D0C0
:1009DC004B4B5B6803F00C03002B0BD0484B5B6854
:1009EC0003F00C03082B1CD1454B5B6803F48033DC
:1009FC00002B16D1424B1B6803F00203002B05D0D1
:100A0C007B681B69012B01D001239DE13C493C4BC8
:100A1C001B6823F0F8027B685B69DB0013430B60F7
:100A2C003AE07B681B69002B20D0364B01221A6000
:100A3C00FFF7DEFB386108E0FFF7DAFB02463B69A3
:100A4C00D31A022B01D903237EE12D4B1B6803F033
:100A5C000203002BF0D02A49294B1B6823F0F80223
:100A6C007B685B69DB0013430B6015E0254B0022B0
:100A7C001A60FFF7BDFB386108E0FFF7B9FB0246CF
:100A8C003B69D31A022B01D903235DE11C4B1B6874
:100A9C0003F00203002BF0D17B681B6803F0080302
:100AAC00002B39D07B689B69002B19D0164B012287
:100ABC001A60FFF79DFB386108E0FFF799FB0246CF
:100ACC003B69D31A022B01D903233DE10C4B5B6A22
:100ADC0003F00203002BF0D0012000F0EBFA1BE036
:100AEC00094B00221A60FFF783FB38610EE0FFF719
:100AFC007FFB02463B69D31A022B07D9032323E160
:100B0C00001002400000424280044242904B5B6A5B
:100B1C0003F00203002BEAD17B681B6803F004038B
:100B2C00002B00F0A2800023FB75894BDB6903F0DE
:100B3C008053002B0DD1864A854BDB6943F08053E3
:100B4C00D361834BDB6903F08053FB60FB680123AB
:100B5C00FB75804B1B6803F48073002B18D17D4A06
:100B6C007C4B1B6843F480731360FFF741FB3861C7
:100B7C0008E0FFF73DFB02463B69D31A642B01D911
:100B8C000323E1E0734B1B6803F48073002BF0D05C
:100B9C007B68DB68012B06D16D4A6D4B1B6A43F0F9
:100BAC00010313622DE07B68DB68002B0CD1684AD3
:100BBC00674B1B6A23F001031362654A644B1B6A83
:100BCC0023F0040313621CE07B68DB68052B0CD15B
:100BDC005F4A5F4B1B6A43F0040313625C4A5C4B35
:100BEC001B6A43F0010313620BE0594A584B1B6A12
:100BFC0023F001031362564A554B1B6A23F004037E
:100C0C0013627B68DB68002B13D0FFF7F1FA3861B5
:100C1C0008E0FFF7EDFA02463B69D31A012B01D924
:100C2C00032391E04A4B1B6A03F00203002BF0D024
:100C3C0012E0FFF7DDFA386108E0FFF7D9FA024657
:100C4C003B69D31A012B01D903237DE0404B1B6A6E
:100C5C0003F00203002BF0D1FB7D012B05D13C4AA4
:100C6C003B4BDB6923F08053D3617B68DB69002B42
:100C7C0069D0374B5B6803F00C03082B61D07B68A1
:100C8C00DB69022B46D1344B00221A60FFF7B0FA15
:100C9C00386108E0FFF7ACFA02463B69D31A022B25
:100CAC0001D9032350E02A4B1B6803F00073002B7F
:100CBC00F0D17B681B6AB3F5803F08D12449244BE3
:100CCC005B6823F400327B689B6813434B602048BD
:100CDC001F4B5B6823F474127B68196A7B685B6A30
:100CEC000B43134343601C4B01221A60FFF780FA3D
:100CFC00386108E0FFF77CFA02463B69D31A022BF5
:100D0C0001D9032320E0124B1B6803F00073002B66
:100D1C00F0D018E0104B00221A60FFF769FA386126
:100D2C0008E0FFF765FA02463B69D31A022B01D99A
:100D3C00032309E0064B1B6803F00073002BF0D172
:100D4C0001E0012300E0002318461837BD4680BDA2
:100D5C0000100240007000406000424280B584B038
:100D6C0000AF786039600023FB607E4B1B6803F09A
:100D7C0007023B689A4210D27A497A4B1B6823F0DF
:100D8C0007023B6813430B60764B1B6803F00702AA
:100D9C003B689A4201D00123E0E07B681B6803F0BA
:100DAC000203002B20D07B681B6803F00403002B8C
:100DBC0005D06D4A6C4B5B6843F4E06353607B6811
:100DCC001B6803F00803002B05D0674A664B5B6871
:100DDC0043F4605353606449634B5B6823F0F00247
:100DEC007B689B6813434B607B681B6803F00103B3
:100DFC00002B6AD07B685B68012B07D15A4B1B68B0
:100E0C0003F40033002B15D10123A7E07B685B684A
:100E1C00022B07D1544B1B6803F00073002B09D134
:100E2C0001239BE0504B1B6803F00203002B01D104
:100E3C00012393E04C494C4B5B6823F003027B6825
:100E4C005B6813434B60FFF7D3F9F8607B685B6812
:100E5C00012B12D10AE0FFF7CBF90246FB68D31A3B
:100E6C0041F28832934201D9032377E03E4B5B6811
:100E7C0003F00C03042BEED127E07B685B68022B9C
:100E8C001DD10AE0FFF7B4F90246FB68D31A41F210
:100E9C008832934201D9032360E0334B5B6803F043
:100EAC000C03082BEED110E0FFF7A2F90246FB6809
:100EBC00D31A41F28832934201D903234EE02A4BD4
:100ECC005B6803F00C03002BEED1264B1B6803F080
:100EDC0007023B689A4210D92249224B1B6823F027
:100EEC0007023B6813430B601E4B1B6803F00702A1
:100EFC003B689A4201D0012330E07B681B6803F009
:100F0C000403002B08D01849174B5B6823F4E062EC
:100F1C007B68DB6813434B607B681B6803F008033A
:100F2C00002B09D01049104B5B6823F460527B688E
:100F3C001B69DB0013434B6000F028F801460A4B99
:100F4C005B681B0903F00F03084AD35C21FA03F317
:100F5C00074A13600020FFF709F9002318461037E1
:100F6C00BD4680BD0020024000100240E465000830
:100F7C008C00002080B400AF034B01221A6000BF2C
:100F8C00BD4680BC704700BF4C00424290B48AB052
:100F9C0000AF2A4B3C1D0FCB84E80F00284B1B885D
:100FAC003B800023FB610023BB6100237B62002399
:100FBC007B6100233B62234B5B68FB61FB6903F0A5
:100FCC000C03042B02D0082B03D02DE01E4B3B62EC
:100FDC002DE0FB699B0C03F00F0307F1280213446F
:100FEC0013F8243C7B61FB6903F48033002B13D092
:100FFC00144B5B685B0C03F0010307F128021344EC
:10100C0013F8283CBB617B690F4A02FB03F2BB69F6
:10101C00B2FBF3F37B6204E07B690C4A02FB03F343
:10102C007B627B6A3B6202E0074B3B6200BF3B6A20
:10103C0018462837BD4690BC704700BFD0630008E7
:10104C00E06300080010024000127A0000093D0025
:10105C0080B400AF024B1B681846BD4680BC70477D
:10106C008C00002080B500AFFFF7F2FF0146054B66
:10107C005B681B0A03F00703034AD35C21FA03F3F2
:10108C00184680BD00100240F465000880B500AF22
:10109C00FFF7DEFF0146054B5B68DB0A03F0070335
:1010AC00034AD35C21FA03F3184680BD00100240BA
:1010BC00F465000880B485B000AF78600A4B1B68FB
:1010CC000A4AA2FB03235B0A7A6802FB03F3FB6068
:1010DC0000BFFB685A1EFA60002BF9D100BF143711
:1010EC00BD4680BC704700BF8C000020D34D621001
:1010FC0080B58AB002AFF860B9603B601346FB80E4
:10110C000023BB610023FB77FB6893F85030012B65
:10111C0001D1022323E1FB68012283F85020FFF761
:10112C0067F8B861FB6893F85130DBB2012B02D041
:10113C000223FB770AE1BB68002B02D0FB88002B53
:10114C0002D10123FB7701E1FB68032283F85120D4
:10115C00FB6800225A65FB68BA681A63FB68FA8858
:10116C009A86FB68FA88DA86FB6800229A63FB6829
:10117C0000229A87FB680022DA87FB6800225A64F7
:10118C00FB6800221A64FB689B68B3F5004F07D11B
:10119C00FB681B68FA681268126842F480421A6095
:1011AC00FB681B681B6803F04003402B07D0FB68EF
:1011BC001B68FA681268126842F040021A60FB68F9
:1011CC00DB68B3F5006F47D1FB685B68002B04D07C
:1011DC00FB68DB8E9BB2012B38D1FB681B68BA68AD
:1011EC001288DA60BB680233BB60FB68DB8E9BB293
:1011FC00013B9AB2FB68DA8628E0FB681B689B68A7
:10120C0003F00203022B0FD1FB681B68BA6812882B
:10121C00DA60BB680233BB60FB68DB8E9BB2013BC0
:10122C009AB2FB68DA8611E03B68002B0BD03B6866
:10123C00B3F1FF3F0AD0FEF7DBFF0246BB69D21ABF
:10124C003B689A4202D30323FB777FE0FB68DB8E7B
:10125C009BB2002BD1D148E0FB685B68002B04D01B
:10126C00FB68DB8E9BB2012B3AD1FB681B680C33FD
:10127C00BA6812781A70BB680133BB60FB68DB8EEE
:10128C009BB2013B9AB2FB68DA8629E0FB681B68CB
:10129C009B6803F00203022B10D1FB681B680C3314
:1012AC00BA6812781A70BB680133BB60FB68DB8EBE
:1012BC009BB2013B9AB2FB68DA8611E03B68002BCB
:1012CC000BD03B68B3F1FF3F0AD0FEF791FF02460B
:1012DC00BB69D21A3B689A4202D30323FB7735E0F1
:1012EC00FB68DB8E9BB2002BD0D1BB6900933B68B3
:1012FC0001220221F86800F036F80346002B02D0D8
:10130C000323FB7722E0BA693968F86800F094F897
:10131C000346002B05D00123FB77FB6820225A657E
:10132C0014E0FB689B68002B0AD100237B61FB68EF
:10133C001B68DB687B61FB681B689B687B617B6956
:10134C00FB685B6D002B01D00123FB77FB6801224E
:10135C0083F85120FB68002283F85020FB7F18464D
:10136C002037BD4680BD80B584B000AFF860B96051
:10137C007A603B604DE03B68B3F1FF3F49D03B687E
:10138C00002B07D0FEF734FF0246BB69D21A3B682C
:10139C009A423ED3FB681B68FA681268526822F0C6
:1013AC00E0025A60FB685B68B3F5827F11D1FB6881
:1013BC009B68B3F5004F04D0FB689B68B3F5806F56
:1013CC0007D1FB681B68FA681268126822F04002A9
:1013DC001A60FB689B6AB3F5005F10D1FB681A6852
:1013EC00FB681B6819684DF6FF730B401360FB68B4
:1013FC001B68FA681268126842F400521A60FB68A3
:10140C00012283F85120FB68002283F8502003232B
:10141C000EE0FB681B689A68BB681A40BB689A426E
:10142C0001D1012200E000227B689A42A3D1002363
:10143C0018461037BD4680BD80B586B002AFF86047
:10144C00B9607A607B680093BB6800228021F868E1
:10145C00FFF789FF0346002B07D0FB685B6D43F059
:10146C002002FB685A65032300E00023184610375E
:10147C00BD4680BD80B582B000AF78607B68002B24
:10148C0001D1012356E07B6800229A627B6893F8B5
:10149C005130DBB2002B02D1786804F047FB7B683B
:1014AC00022283F851207B681B687A6812681268E4
:1014BC0022F040021A607B681B687A6851687A686F
:1014CC00926811437A68D26811437A6812691143A1
:1014DC007A68526911437A68926902F40072114376
:1014EC007A68D26911437A68126A11437A68926AEF
:1014FC000A431A607B681B687A689269120C02F0C6
:10150C0004017A68526A0A435A607B681B687A68DD
:10151C00D26A1A617B681B687A681268D26922F4F5
:10152C000062DA617B6800225A657B68012283F8CD
:10153C005120002318460837BD4680BD80B582B0C7
:10154C0000AF78607B68002B01D101231DE07B6824
:10155C0093F83D30DBB2002B06D17B68002283F878
:10156C003C20786804F088FD7B68022283F83D20DB
:10157C007B681A687B6804331946104600F04AFCF5
:10158C007B68012283F83D20002318460837BD46AE
:10159C0080BD80B483B000AF78607B681B687A68CC
:1015AC001268D26842F00102DA607B681B687A68C4
:1015BC001268126842F001021A60002318460C37B8
:1015CC00BD4680BC704780B483B000AF78607B6848
:1015DC001B687A681268D26822F00102DA607B68B4
:1015EC001B681A6A41F211131340002B0FD17B6850
:1015FC001B681A6A40F244431340002B07D17B68E6
:10160C001B687A681268126822F001021A600023C3
:10161C0018460C37BD4680BC704780B582B000AF11
:10162C0078607B68002B01D101231DE07B6893F867
:10163C003D30DBB2002B06D17B68002283F83C20C6
:10164C00786800F015F87B68022283F83D207B68EF
:10165C001A687B6804331946104600F0DBFB7B6884
:10166C00012283F83D20002318460837BD4680BD73
:10167C0080B483B000AF786000BF0C37BD4680BC2F
:10168C00704780B582B000AF78607B68002B01D1C9
:10169C0001231DE07B6893F83D30DBB2002B06D1B3
:1016AC007B68002283F83C20786800F015F87B6892
:1016BC00022283F83D207B681A687B680433194644
:1016CC00104600F0A7FB7B68012283F83D20002325
:1016DC0018460837BD4680BD80B483B000AF786033
:1016EC0000BF0C37BD4680BC7047000080B582B08F
:1016FC0000AF786039607B681B6801223968184636
:10170C0000F0BEFE7B681B680B4A934207D17B68D6
:10171C001B687A681268526C42F400425A647B6807
:10172C001B687A681268126842F001021A60002382
:10173C0018460837BD4680BD002C014080B582B0EC
:10174C0000AF78607B681B681B6903F00203022BF7
:10175C0022D17B681B68DB6803F00203022B1BD1D0
:10176C007B681B686FF002021A617B6801221A7792
:10177C007B681B689B6903F00303002B03D078681C
:10178C0000F02CFB05E0786800F01FFB786800F097
:10179C002EFB7B6800221A777B681B681B6903F0A1
:1017AC000403042B22D17B681B68DB6803F0040361
:1017BC00042B1BD17B681B686FF004021A617B68D9
:1017CC0002221A777B681B689B6903F44073002B19
:1017DC0003D0786800F002FB05E0786800F0F5FAB9
:1017EC00786800F004FB7B6800221A777B681B6822
:1017FC001B6903F00803082B22D17B681B68DB688C
:10180C0003F00803082B1BD17B681B686FF00802E0
:10181C001A617B6804221A777B681B68DB6903F00A
:10182C000303002B03D0786800F0D8FA05E0786841
:10183C0000F0CBFA786800F0DAFA7B6800221A77AD
:10184C007B681B681B6903F01003102B22D17B688B
:10185C001B68DB6803F01003102B1BD17B681B6823
:10186C006FF010021A617B6808221A777B681B687C
:10187C00DB6903F44073002B03D0786800F0AEFAF8
:10188C0005E0786800F0A1FA786800F0B0FA7B689F
:10189C0000221A777B681B681B6903F00103012B7C
:1018AC000ED17B681B68DB6803F00103012B07D1A9
:1018BC007B681B686FF001021A61786800F07CFA93
:1018CC007B681B681B6903F08003802B0ED17B683F
:1018DC001B68DB6803F08003802B07D17B681B68D7
:1018EC006FF080021A61786800F039FE7B681B6823
:1018FC001B6903F04003402B0ED17B681B68DB682F
:10190C0003F04003402B07D17B681B686FF040024B
:10191C001A61786800F074FA7B681B681B6903F025
:10192C002003202B0ED17B681B68DB6803F020039F
:10193C00202B07D17B681B686FF020021A61786836
:10194C0000F004FE00BF0837BD4680BD80B584B0F2
:10195C0000AFF860B9607A60FB6893F83C30012BFB
:10196C0001D102234EE0FB68012283F83C20FB6886
:10197C00022283F83D207B680C2B39D801A252F847
:10198C0023F000BFC5190008FD190008FD19000857
:10199C00FD190008D3190008FD190008FD190008ED
:1019AC00FD190008E1190008FD190008FD190008CF
:1019BC00FD190008EF190008FB681B68B968184688
:1019CC0000F08EFA15E0FB681B68B968184600F049
:1019DC00F3FA0EE0FB681B68B968184600F05CFB74
:1019EC0007E0FB681B68B968184600F0C5FB00E00F
:1019FC0000BFFB68012283F83D20FB68002283F8BE
:101A0C003C20002318461037BD4680BD80B584B0FD
:101A1C0000AFF860B9607A60FB6893F83C30012B3A
:101A2C0001D10223B4E0FB68012283F83C20FB685F
:101A3C00022283F83D207B680C2B00F29F8001A2D0
:101A4C0052F823F0851A0008891B0008891B00082E
:101A5C00891B0008C51A0008891B0008891B00088F
:101A6C00891B0008071B0008891B0008891B00083C
:101A7C00891B0008471B0008FB681B68B9681846DF
:101A8C0000F02EFAFB681B68FA681268926942F043
:101A9C0008029A61FB681B68FA681268926922F066
:101AAC0004029A61FB681B68FA6812689169BA684B
:101ABC0012690A439A6162E0FB681B68B9681846B0
:101ACC0000F07AFAFB681B68FA681268926942F4B3
:101ADC0000629A61FB681B68FA681268926922F4CA
:101AEC0080629A61FB681B68FA6812689169BA682F
:101AFC00126912020A439A6141E0FB681B68B968DB
:101B0C00184600F0C9FAFB681B68FA681268D269BB
:101B1C0042F00802DA61FB681B68FA681268D26945
:101B2C0022F00402DA61FB681B68FA681268D1695A
:101B3C00BA6812690A43DA6121E0FB681B68B9686C
:101B4C00184600F019FBFB681B68FA681268D2692A
:101B5C0042F40062DA61FB681B68FA681268D269A9
:101B6C0022F48062DA61FB681B68FA681268D1693A
:101B7C00BA68126912020A43DA6100E000BFFB681E
:101B8C00012283F83D20FB68002283F83C200023CF
:101B9C0018461037BD4680BD80B584B000AF786064
:101BAC0039600023FB607B6893F83C30012B01D13A
:101BBC000223C8E07B68012283F83C207B68022268
:101BCC0083F83D207B681B689B68FB60FB6823F0F7
:101BDC007703FB60FB6823F47F43FB607B681B6827
:101BEC00FA689A603B681B68402B77D0402B0ED864
:101BFC00102B00F08A80102B02D8002B7ED099E09D
:101C0C00202B00F08980302B00F08D8092E0702B1F
:101C1C0016D0702B04D8502B40D0602B4ED089E0BE
:101C2C00B3F5805F03D0B3F5005F24D082E07B680E
:101C3C001B687A681268926822F007029A6079E051
:101C4C007B6818683B6899683B685A683B68DB6836
:101C5C0000F0F5FB7B681B689B68FB60FB6823F05E
:101C6C007703FB60FB6843F07703FB607B681B68C2
:101C7C00FA689A605EE07B6818683B6899683B6814
:101C8C005A683B68DB6800F0DAFB7B681B687A6893
:101C9C001268926842F480429A604BE07B68186844
:101CAC003B6859683B68DB681A4600F044FB7B686C
:101CBC001B685021184600F0A3FB3BE07B681868BA
:101CCC003B6859683B68DB681A4600F066FB7B682A
:101CDC001B686021184600F093FB2BE07B681868AA
:101CEC003B6859683B68DB681A4600F024FB7B684C
:101CFC001B684021184600F083FB1BE07B681B68C7
:101D0C000021184600F07CFB14E07B681B68102156
:101D1C00184600F075FB0DE07B681B682021184607
:101D2C0000F06EFB06E07B681B683021184600F063
:101D3C0067FB00BF7B68012283F83D207B68002293
:101D4C0083F83C20002318461037BD4680BD80B573
:101D5C0082B000AF786039607B6893F83C30012B1F
:101D6C0001D1022324E07B68012283F83C207B68AC
:101D7C00022283F83D203968786800F051FA7B68BC
:101D8C001B687A681268D26822F04002DA607B68BD
:101D9C001B687A681268D26822F48042DA607B6829
:101DAC00012283F83D207B68002283F83C2000232D
:101DBC0018460837BD4680BD80B483B000AF78604C
:101DCC0000BF0C37BD4680BC704780B483B000AFF9
:101DDC00786000BF0C37BD4680BC704780B483B0C0
:101DEC0000AF786000BF0C37BD4680BC704780B434
:101DFC0083B000AF786000BF0C37BD4680BC704725
:101E0C0080B483B000AF786000BF0C37BD4680BC97
:101E1C007047000080B485B000AF78603960002353
:101E2C00FB607B681B68FB607B682A4A93420BD083
:101E3C007B68B3F1804F07D07B68274A934203D06D
:101E4C007B68264A934208D1FB6823F07003FB6041
:101E5C003B685B68FA681343FB607B681D4A9342DE
:101E6C000BD07B68B3F1804F07D07B681A4A934242
:101E7C0003D07B68194A934208D1FB6823F4407362
:101E8C00FB603B68DB68FA681343FB60FB6823F07C
:101E9C008003FB603B685B69FA681343FB607B68FB
:101EAC00FA681A603B689A687B68DA623B681A6861
:101EBC007B689A627B68074A934203D13B681A6934
:101ECC007B681A637B6801225A6100BF1437BD46D8
:101EDC0080BC7047002C014000040040000800400A
:101EEC0080B487B000AF786039600023FB600023BA
:101EFC007B6100233B617B681B6A23F001027B68DA
:101F0C001A627B681B6A7B617B685B683B617B68E0
:101F1C009B69FB60FB6823F07003FB60FB6823F09C
:101F2C000303FB603B681B68FA681343FB607B6927
:101F3C0023F002037B613B689B687A6913437B61E6
:101F4C007B681C4A93420CD17B6923F008037B61AC
:101F5C003B68DB687A6913437B617B6923F004037C
:101F6C007B617B68134A934211D13B6923F48073E4
:101F7C003B613B6923F400733B613B685B693A69E5
:101F8C0013433B613B689B693A6913433B617B6834
:101F9C003A695A607B68FA689A613B685A687B6850
:101FAC005A637B687A691A6200BF1C37BD4680BCD5
:101FBC00704700BF002C014080B487B000AF786040
:101FCC0039600023FB6000237B6100233B617B684D
:101FDC001B6A23F010027B681A627B681B6A7B61A8
:101FEC007B685B683B617B689B69FB60FB6823F4E7
:101FFC00E043FB60FB6823F44073FB603B681B68A9
:10200C001B02FA681343FB607B6923F020037B619E
:10201C003B689B681B017A6913437B617B681D4A93
:10202C0093420DD17B6923F080037B613B68DB68B5
:10203C001B017A6913437B617B6923F040037B614D
:10204C007B68144A934213D13B6923F480633B6150
:10205C003B6923F400633B613B685B699B003A6915
:10206C0013433B613B689B699B003A6913433B619B
:10207C007B683A695A607B68FA689A613B685A686F
:10208C007B689A637B687A691A6200BF1C37BD460D
:10209C0080BC7047002C014080B487B000AF7860E2
:1020AC0039600023FB6000237B6100233B617B686C
:1020BC001B6A23F480727B681A627B681B6A7B61E3
:1020CC007B685B683B617B68DB69FB60FB6823F0CA
:1020DC007003FB60FB6823F00303FB603B681B6829
:1020EC00FA681343FB607B6923F400737B613B68E4
:1020FC009B681B027A6913437B617B681D4A934280
:10210C000DD17B6923F400637B613B68DB681B02A8
:10211C007A6913437B617B6923F480637B617B6801
:10212C00144A934213D13B6923F480533B613B69BE
:10213C0023F400533B613B685B691B013A69134311
:10214C003B613B689B691B013A6913433B617B68AC
:10215C003A695A607B68FA68DA613B685A687B684E
:10216C00DA637B687A691A6200BF1C37BD4680BC93
:10217C00704700BF002C014080B487B000AF78607E
:10218C00396000233B610023FB6000237B617B688B
:10219C001B6A23F480527B681A627B681B6AFB60A3
:1021AC007B685B687B617B68DB693B613B6923F423
:1021BC00E0433B613B6923F440733B613B681B6824
:1021CC001B023A6913433B61FB6823F40053FB6029
:1021DC003B689B681B03FA681343FB607B680F4AE0
:1021EC00934209D17B6923F480437B613B685B6933
:1021FC009B017A6913437B617B687A695A607B68BF
:10220C003A69DA613B685A687B681A647B68FA68D9
:10221C001A6200BF1C37BD4680BC7047002C0140C1
:10222C0080B586B000AF7860396000237B610023F5
:10223C003B610023FB607B681B689B687B617B694F
:10224C0023F070037B613B685B687A6913437B61A5
:10225C007B6923F007037B613B681B687A69134336
:10226C007B617B681B687A699A603B685B68302B82
:10227C0056D0302B06D8102B54D0202B54D0002BFA
:10228C0054D054E0502B37D0502B02D8402B10D0C8
:10229C004DE0602B3AD0702B00D048E07B6818687A
:1022AC003B68D9683B689A683B681B6900F0C7F8C3
:1022BC003DE07B681B681B6AFB607B681B687A6867
:1022CC001268126A22F001021A627B681B689B6911
:1022DC003B613B6923F0F0033B613B681B691B01CD
:1022EC003A6913433B617B681B683A699A617B6866
:1022FC001B68FA681A621AE07B6818683B68996870
:10230C003B681B691A4600F016F810E07B681868E9
:10231C003B6899683B681B691A4600F03EF806E07A
:10232C0000BF04E000BF02E000BF00E000BF00BF40
:10233C001837BD4680BD80B487B000AFF860B96077
:10234C007A6000237B6100233B61FB681B6A3B6165
:10235C00FB681B6A23F00102FB681A62FB689B692D
:10236C007B617B6923F0F0037B617B681B017A69DD
:10237C0013437B613B6923F00A033B613A69BB68F9
:10238C0013433B61FB687A699A61FB683A691A628C
:10239C0000BF1C37BD4680BC704780B487B000AF0F
:1023AC00F860B9607A6000237B6100233B61FB68B5
:1023BC001B6A23F01002FB681A62FB689B697B6145
:1023CC00FB681B6A3B617B6923F470437B617B6810
:1023DC001B037A6913437B613B6923F0A0033B61C8
:1023EC00BB681B013A6913433B61FB687A699A61CC
:1023FC00FB683A691A6200BF1C37BD4680BC704747
:10240C0080B485B000AF78600B467B800023FB6006
:10241C007B689B68FB60FB6823F07003FB607B8828
:10242C0043F007039BB21A46FB681343FB607B68BF
:10243C00FA689A6000BF1437BD4680BC704780B400
:10244C0087B000AFF860B9607A603B6000237B61B5
:10245C00FB689B687B617B6923F47F437B613B68F2
:10246C001A027B681A43BB6813437A6913437B6176
:10247C00FB687A699A6000BF1C37BD4680BC704708
:10248C0080B487B000AFF860B9607A6000237B61DC
:10249C000122BB6802FA03F37B61FB681A6A7B6951
:1024AC00DB431A40FB681A62FB681A6A7968BB68DE
:1024BC0001FA03F31A43FB681A6200BF1C37BD46CE
:1024CC0080BC704780B483B000AF786039607B68A3
:1024DC0093F83C30012B01D1022332E07B680122BE
:1024EC0083F83C207B68022283F83D207B681B68C4
:1024FC007A681268526822F070025A607B681B6816
:10250C007A68126851683A6812680A435A607B68A4
:10251C001B687A681268926822F080029A607B6865
:10252C001B687A68126891683A6852680A439A6024
:10253C007B68012283F83D207B68002283F83C20D5
:10254C00002318460C37BD4680BC704780B483B05E
:10255C0000AF786000BF0C37BD4680BC704780B4BC
:10256C0083B000AF786000BF0C37BD4680BC7047AD
:10257C0080B582B000AF78607B68002B01D101235D
:10258C003FE07B6893F83930DBB2002B06D17B68D7
:10259C00002283F83820786803F016FE7B6824222A
:1025AC0083F839207B681B687A681268D26822F439
:1025BC000052DA60786800F041FB7B681B687A682F
:1025CC001268126922F490421A617B681B687A685F
:1025DC001268526922F02A025A617B681B687A6879
:1025EC001268D26842F40052DA607B680022DA6327
:1025FC007B68202283F839207B68202283F83A20DC
:10260C00002318460837BD4680BD80B588B002AFA0
:10261C00F860B9603B601346FB8000237B61FB686C
:10262C0093F83930DBB2202B40F08280BB68002B52
:10263C0002D0FB88002B01D101237AE0FB6893F8D0
:10264C003830012B01D1022373E0FB68012283F89F
:10265C003820FB680022DA63FB68212283F83920DA
:10266C00FDF7C6FD7861FB68FA889A84FB68FA88E6
:10267C00DA8441E0FB68DB8C9BB2013B9AB2FB68CD
:10268C00DA84FB689B68B3F5805F21D13B680093CB
:10269C007B6900228021F86800F067F90346002B63
:1026AC0001D0032345E0BB683B61FB681B683A69BA
:1026BC001288C2F308025A60FB681B69002B03D115
:1026CC00BB680233BB6017E0BB680133BB6013E02F
:1026DC003B6800937B6900228021F86800F045F983
:1026EC000346002B01D0032323E0FB681A68BB6868
:1026FC00591CB9601B785360FB68DB8C9BB2002BB8
:10270C00B8D13B6800937B6900224021F86800F047
:10271C002CF90346002B01D003230AE0FB6820228E
:10272C0083F83920FB68002283F83820002300E06E
:10273C00022318461837BD4680BD000080B588B00E
:10274C0000AF78607B681B681B68FB617B681B684B
:10275C00DB68BB617B681B685B697B6100233B6149
:10276C000023FB60FB6903F00F033B613B69002B0B
:10277C000DD1FB6903F02003002B08D0BB6903F0DB
:10278C002003002B03D0786800F0D6F9CCE03B692D
:10279C00002B00F0AB807B6903F00103002B05D10B
:1027AC00BB6903F49073002B00F0A080FB6903F06D
:1027BC000103002B0AD0BB6903F48073002B05D0F6
:1027CC007B68DB6B43F001027B68DA63FB6903F027
:1027DC000403002B0AD07B6903F00103002B05D006
:1027EC007B68DB6B43F002027B68DA63FB6903F006
:1027FC000203002B0AD07B6903F00103002B05D0E8
:10280C007B68DB6B43F004027B68DA63FB6903F0E3
:10281C000803002B0AD07B6903F00103002B05D0C1
:10282C007B68DB6B43F008027B68DA637B68DB6BED
:10283C00002B78D0FB6903F02003002B07D0BB6979
:10284C0003F02003002B02D0786800F075F97B6848
:10285C001B685B6903F04003002B14BF01230023AA
:10286C00DBB2FB607B68DB6B03F00803002B02D14F
:10287C00FB68002B31D0786800F0C1F87B681B68CE
:10288C005B6903F04003002B23D07B681B687A68DC
:10289C001268526922F040025A617B685B6B002B14
:1028AC0013D07B685B6B224A5A637B685B6B184660
:1028BC00FDF7D2FD0346002B16D07B685B6B5B6B80
:1028CC007A68526B104698470EE0786800F044F82E
:1028DC000AE0786800F040F806E0786800F03CF810
:1028EC007B680022DA631EE000BF1CE0FB6903F08A
:1028FC008003002B08D0BB6903F08003002B03D0AE
:10290C00786800F0ADF80FE0FB6903F04003002B92
:10291C000AD0BB6903F04003002B05D0786800F0A7
:10292C00F3F800BF00E000BF2037BD4680BD00BFFC
:10293C00452A000880B483B000AF786000BF0C3724
:10294C00BD4680BC704780B483B000AF786000BFD8
:10295C000C37BD4680BC704780B483B000AF786044
:10296C0000BF0C37BD4680BC704780B584B000AF4B
:10297C00F860B9603B601346FB712CE0BB69B3F1A6
:10298C00FF3F28D0BB69002B07D0FDF731FC024676
:10299C003B68D21ABB699A421DD9FB681B68FA685E
:1029AC001268D26822F4D072DA60FB681B68FA688D
:1029BC001268526922F001025A61FB68202283F8E6
:1029CC003920FB68202283F83A20FB68002283F828
:1029DC00382003230FE0FB681B681A68BB681A4099
:1029EC00BB689A420CBF01230023DBB21A46FB7969
:1029FC009A42C3D0002318461037BD4680BD80B420
:102A0C0083B000AF78607B681B687A681268D26804
:102A1C0022F49072DA607B681B687A6812685269DB
:102A2C0022F001025A617B68202283F83A2000BF11
:102A3C000C37BD4680BC704780B584B000AF786061
:102A4C007B685B6AFB60FB680022DA85FB6800220E
:102A5C00DA84F868FFF780FF00BF1037BD4680BDF1
:102A6C0080B485B000AF78607B6893F83930DBB206
:102A7C00212B43D17B689B68B3F5805F19D17B68B0
:102A8C001B6AFB607B681B68FA681288C2F3080239
:102A9C005A607B681B69002B05D17B681B6A9A1CEA
:102AAC007B681A620EE07B681B6A5A1C7B681A6290
:102ABC0008E07B681A687B681B6A581C7968086296
:102ACC001B7853607B68DB8C9BB2013B9BB27A68B2
:102ADC001946D184002B0FD17B681B687A68126869
:102AEC00D26822F08002DA607B681B687A68126810
:102AFC00D26842F04002DA60002300E0022318465C
:102B0C001437BD4680BC704780B582B000AF78608A
:102B1C007B681B687A681268D26822F04002DA601F
:102B2C007B68202283F839207868FFF703FF0023A5
:102B3C0018460837BD4680BD80B584B000AF7860BC
:102B4C007B6893F83A30DBB2222B71D17B689B689F
:102B5C00B3F5805F23D17B689B6AFB607B681B6944
:102B6C00002B0ED17B681B685B689BB2C3F3080318
:102B7C009AB2FB681A807B689B6A9A1C7B689A6283
:102B8C0029E07B681B685B689BB2DBB29AB2FB687E
:102B9C001A807B689B6A5A1C7B689A621BE07B6874
:102BAC001B69002B0AD17B689B6A591C7A6891625D
:102BBC007A6812685268D2B21A700CE07B689B6A11
:102BCC00591C7A6891627A6812685268D2B202F023
:102BDC007F02D2B21A707B68DB8D9BB2013B9BB239
:102BEC007A681946D185002B20D17B681B687A68DE
:102BFC001268D26822F02002DA607B681B687A685F
:102C0C001268D26822F48072DA607B681B687A687A
:102C1C001268526922F001025A617B68202283F803
:102C2C003A207868FFF78FFE002302E0002300E0D3
:102C3C00022318461037BD4680BD0000F0B585B0A4
:102C4C0000AF78600023FB607B681B687A681268B1
:102C5C00126922F440517A68D2680A431A617B687F
:102C6C009A687B681B691A437B685B691343FA6833
:102C7C001343FB607B681A687B681B68DB6823F472
:102C8C00B05323F00C03F9680B43D3607B681B68CB
:102C9C007A681268526922F440717A6892690A4320
:102CAC005A617B681B686F4A93426BD17B681C68C6
:102CBC00FEF7ECF9024613469B0013449A001A44A3
:102CCC007B685B689B00B2FBF3F3674AA2FB0323B0
:102CDC005B091D01FEF7DAF9024613469B0013440B
:102CEC009A001A447B685B689B00B2FBF3F6FEF714
:102CFC00CDF9024613469B0013449A001A447B6894
:102D0C005B689B00B2FBF3F3574AA2FB03235B09FE
:102D1C00642202FB03F3F31A1B013233524AA2FB67
:102D2C0003235B0903F0F0031D44FEF7AFF90246E1
:102D3C0013469B0013449A001A447B685B689B0003
:102D4C00B2FBF3F6FEF7A2F9024613469B001344BE
:102D5C009A001A447B685B689B00B2FBF3F3424A0F
:102D6C00A2FB03235B09642202FB03F3F31A1B018E
:102D7C0032333D4AA2FB03235B0903F00F032B44C0
:102D8C00A3606AE07B681C68FEF76CF90246134688
:102D9C009B0013449A001A447B685B689B00B2FB4F
:102DAC00F3F3314AA2FB03235B091D01FEF75AF929
:102DBC00024613469B0013449A001A447B685B68D6
:102DCC009B00B2FBF3F6FEF74DF9024613469B004F
:102DDC0013449A001A447B685B689B00B2FBF3F3C4
:102DEC00214AA2FB03235B09642202FB03F3F31ABF
:102DFC001B0132331C4AA2FB03235B0903F0F003D3
:102E0C001D44FEF72FF9024613469B0013449A000B
:102E1C001A447B685B689B00B2FBF3F6FEF722F961
:102E2C00024613469B0013449A001A447B685B6865
:102E3C009B00B2FBF3F30C4AA2FB03235B09642255
:102E4C0002FB03F3F31A1B013233074AA2FB0323E1
:102E5C005B0903F00F032B44A36000BF1437BD467E
:102E6C00F0BD00BF003801401F85EB5180B483B02A
:102E7C0000AF0346FB80094B1968094B1868FA88A8
:102E8C0013469B0013449B00B0FBF3F3013B8B6296
:102E9C0000BF0C37BD4680BC704700BF54030020F8
:102EAC008C00002080B483B000AF0346FB80FB880D
:102EBC000A2B01D90A23FB80044B1B68FA881A647D
:102ECC0000BF0C37BD4680BC704700BF54030020C8
:102EDC0080B588B000AF07F1100300221A605A6069
:102EEC009A60DA60494A494B9B6943F0100393613D
:102EFC00464B9B6903F01003FB60FB68434A434B52
:102F0C009B6943F020039361404B9B6903F02003C2
:102F1C00BB60BB683D4A3D4B9B6943F00403936126
:102F2C003A4B9B6903F004037B607B68374A374B51
:102F3C009B6943F008039361344B9B6903F00803CE
:102F4C003B603B6800224FF400513148FDF775FCA3
:102F5C00012241F238012F48FDF76FFC01224FF49A
:102F6C00C0512D48FDF769FC4FF400533B61112310
:102F7C007B610023BB610223FB6107F1100319463F
:102F8C002348FDF7E5FA1F233B6100237B610223F5
:102F9C00BB6107F1100319461F48FDF7D9FAE0236E
:102FAC003B611E4B7B610123BB6107F1100319468A
:102FBC001948FDF7CDFA41F238033B6101237B61DF
:102FCC000023BB610223FB6107F110031946114872
:102FDC00FDF7BEFA4FF4C0533B6101237B61002324
:102FEC00BB610223FB6107F1100319460A48FDF788
:102FFC00AFFA002200211720FDF7F7F91720FDF793
:10300C0010FA00BF2037BD4680BD00BF0010024043
:10301C0000100140000C014000080140000021108C
:10302C0080B586B002AFFDF78BF800F089F8FFF79A
:10303C004FFF03F09FF802F009FF02F03FFD02F092
:10304C0091FF002300934FF4E133002295210020DF
:10305C0001F086FF02F000F803461A46314B1A7055
:10306C00314B324A1A60304B4FF400529A800C218B
:10307C002F48FEF73BFB0023FB6007E02D4AFB6863
:10308C00002122F81310FB680133FB60FB68092B4D
:10309C00F4DD284B40F20342DA810023BB6009E0E7
:1030AC000121B86800F016FE234800F0DBFDBB6878
:1030BC000133BB60BB68132BF2DD4FF4FA70FDF7E4
:1030CC00A1F81D4800F0CEFD012000F01DFD01F01F
:1030DC00DFFF00F095FD00F011FB00F0ADFC00F0FF
:1030EC005BF900F0DDF9134B1A88144B1A80134B63
:1030FC005A88104B5A80114B9A880E4B9A80032396
:10310C007B600AE00B4A7B6832F813100B4A7B6831
:10311C0022F813107B6801337B607B68092BF1DD8F
:10312C00D5E700BFDC000020980100200010014012
:10313C005403002050010020080000206C010020E6
:10314C0080B590B000AF07F1180328220021184673
:10315C0003F023F93B1D00221A605A609A60DA6072
:10316C001A610123BB614FF48033FB6100233B6286
:10317C000123BB6202237B634FF48033BB634FF4A8
:10318C00E013FB6307F118031846FDF787FB0346B2
:10319C00002B01D001F03AFA0F237B600223BB60B5
:1031AC000023FB604FF480633B6100237B613B1D7C
:1031BC0002211846FDF7D2FD0346002B01D001F089
:1031CC0025FAFDF7D7FE00BF4037BD4680BD000095
:1031DC0080B582B000AFFDF70BF83860374B1B6839
:1031EC003A68D31AB3F5FA6F64D9354802F0F8FA95
:1031FC000346002B5ED03349314802F03CFC314B86
:10320C001B78002B37D02F4B1A782F4B1A702D4B65
:10321C005A782D4B5A702B4B9A782B4B9A70294B12
:10322C00DA78294BDA70274B1A79274B1A71254B10
:10323C005A79254B5A71234B9A79234B9A71214B0E
:10324C00DA79214BDA711F4B00221A701D4B0022C8
:10325C005A701C4B00229A701A4B0022DA70194BD0
:10326C0000221A71174B00225A71164B00229A71C8
:10327C00144B0022DA711549134800F029F8034663
:10328C0083F00103DBB2002B14D00C4A3B681360B3
:10329C0000237B600BE00C4A7B68134419780B4AC3
:1032AC007B6813440A461A707B6801337B607B6829
:1032BC00072BF0DD00BF0837BD4680BDCC000020D9
:1032CC009801002064010020B0000020B80000200C
:1032DC0080B485B000AF786039600023FB600023B8
:1032EC00BB600FE0BB687A6813441A78BB68396816
:1032FC000B441B789A4202D1FB680133FB60BB681C
:10330C000133BB60BB68072BECDDFB68072B01DDD1
:10331C00012300E0002318461437BD4680BC7047DB
:10332C0080B483B000AF0023FB7100233B600AE044
:10333C00094A3B6813441B78002B01D00123FB7115
:10334C003B6801333B603B68072BF1DDFB7918468A
:10335C000C37BD4680BC7047B800002080B400AF6D
:10336C000B4BDB789BB21B029AB2094B9B789BB23E
:10337C0013449AB2074BDA80054B5B789BB21B0265
:10338C009AB2044B1A8100BFBD4680BC704700BF87
:10339C00B80000205001002080B500AF184B1B78FE
:1033AC00012B0ED1FFF714FFFFF7BAFF0346002BDA
:1033BC0024D000F0D1FBFFF7D1FF022000F0A4FBDA
:1033CC001CE00F4B1B78022B18D100F031F80D4B81
:1033DC001B78022B08D00A2B0AD0012B00D00DE051
:1033EC00032000F091FB09E0032000F08DFB05E0C9
:1033FC0000F0CEFB012000F087FB00BF00BF80BDBA
:10340C00DB000020D900002080B582B000AF022381
:10341C007B6006E00021786800F05CFC7B6801337F
:10342C007B607B68132BF5DD00BF0837BD4680BD84
:10343C0080B400AF044B5B88DAB2044B1A7000BF47
:10344C00BD4680BC704700BF50010020D900002051
:10345C0080B400AF044B9B88DAB2044B1A7000BFE7
:10346C00BD4680BC704700BF50010020DA00002030
:10347C0080B400AF074B00225A80064B00229A8082
:10348C00054B00221A70054B00221A7000BFBD4676
:10349C0080BC704750010020D9000020DA000020C9
:1034AC0080B582B000AF8E4B1B78FB718D4B1B78B7
:1034BC0083F00103DBB2002B00F00D81FB79002BB4
:1034CC0000F00981884B1B78013B082B00F2FE8031
:1034DC0001A252F823F000BFE136000809350008BC
:1034EC0027350008453500086735000845360008C3
:1034FC00BD3500088F36000801360008FB790F2B0C
:10350C0005D100F029FB012000F0FEFA01E000F0EB
:10351C003FFB744B01221A70DDE0FB790F2B05D1B8
:10352C0000F01AFB012000F0EFFA01E000F030FB94
:10353C006C4B01221A70CEE0FB790F2B07D100F0F7
:10354C000BFBFFF761FF012000F0DEFA01E000F059
:10355C001FFB644B01221A70BDE0FB790F2B07D1C6
:10356C0000F0FAFAFFF750FF012000F0CDFA1BE053
:10357C00FB790D2B09D15D4B1B78012B05D100F08C
:10358C00EBFA072000F0C0FA0EE0FB790E2B09D104
:10359C00564B1B78022B05D100F0DEFA062000F00A
:1035AC00B3FA01E000F0F4FA4E4B01221A7092E0EB
:1035BC00FB79002B0FD0FB790C2B0CD800F0CCFA3C
:1035CC004B4AFB791370092000F09EFAFB799AB2F2
:1035DC00484B5A810AE0FB790F2B05D100F0BCFA5D
:1035EC00012000F091FA01E000F0D2FA3D4B0122EB
:1035FC001A7070E0FB79002B0FD0FB790C2B0CD8D8
:10360C0000F0AAFA3A4AFB791370092000F07CFA10
:10361C00FB799AB2374B5A810AE0FB790F2B05D113
:10362C0000F09AFA012000F06FFA01E000F0B0FA15
:10363C002C4B01221A704EE0FB79002B0FD0FB793A
:10364C00082B0CD800F088FA2B4AFB791370082051
:10365C0000F05AFAFB799AB2264B9A810DE0FB796D
:10366C000F2B02D0FB79092B05D100F075FA07203E
:10367C0000F04AFA01E000F08BFA1A4B01221A70A2
:10368C0029E0FB79002B0FD0FB79082B0CD800F02C
:10369C0063FA194AFB791370082000F035FAFB79AC
:1036AC009AB2144B9A810DE0FB790F2B02D0FB7967
:1036BC00092B05D100F050FA012000F025FA01E0A9
:1036CC0000F066FA074B01221A7004E0054B012248
:1036DC001A7000E000BF00BF0837BD4680BD00BFB8
:1036EC00AC000020AD000020DB000020D900002041
:1036FC00D100002050010020D000002080B584B003
:10370C0000AFFCF775FD7860A94B1B78002B03D03C
:10371C000121002000F0DEFAA54B1B78022B03D907
:10372C000121012000F0D6FAFFF782FEA04B1B7896
:10373C00013B082B00F26C8101A252F823F000BF70
:10374C0071370008B33700081D3A00081B38000811
:10375C005D38000853390008E7380008F5390008CF
:10376C00CD390008934B1B687A68D31AB3F5967F52
:10377C0040F250818F4A7B6813608F4B1B78002B73
:10378C0014BF01230023DBB283F00103DBB203F08F
:10379C000103DAB2884B1A70874B1B78194601204B
:1037AC0000F098FA36E1854B1B78012B23D0022BC5
:1037BC0026D0002B00D036E17E4B1B687A68D31ADA
:1037CC00962B22D97B4A7B6813607B4B1B78002B92
:1037DC0014BF01230023DBB283F00103DBB203F03F
:1037EC000103DAB2744B1A70734B1B781946012023
:1037FC0000F070FA09E00121012000F06BFA05E0FD
:10380C000121012000F066FA00E000BF0BE1694BDA
:10381C001B687A68D31AB3F57A7F40F2FD80654A4B
:10382C007B681360644B1B78002B14BF01230023AF
:10383C00DBB283F00103DBB203F00103DAB25E4BBF
:10384C001A705D4B1B781946022000F043FAE3E036
:10385C00584B1B687A68D31AB3F5967F40F2DE801A
:10386C00544A7B681360544B1B78002B14BF012304
:10387C000023DBB283F00103DBB203F00103DAB205
:10388C004D4B1A704D4B1B78012B10D14A4B1B78AA
:10389C001946032000F01EFA474B1B7819461120DD
:1038AC0000F018FA0021042000F014FAB6E0434BA3
:1038BC001B78022B40F0B2803F4B1B78194604203A
:1038CC0000F008FA3C4B1B781946122000F002FA63
:1038DC000021032000F0FEF9A0E00021042000F0FC
:1038EC00F9F90121032000F0F5F90121112000F074
:1038FC00F1F9304B1B687A68D31AB3F5967F40F216
:10390C008F802C4A7B6813602B4B1B78002B14BFC9
:10391C0001230023DBB283F00103DBB203F00103CC
:10392C00DAB2254B1A700523FB6008E0224B1B789A
:10393C001946F86800F0CEF9FB680133FB60FB68B0
:10394C00102BF3DD6CE00121042000F0C3F9002101
:10395C00032000F0BFF90121122000F0BBF9154B38
:10396C001B687A68D31AB3F5967F5BD9114A7B68CA
:10397C001360114B1B78002B14BF01230023DBB207
:10398C0083F00103DBB203F00103DAB20A4B1A70C5
:10399C000523BB6008E0084B1B781946B86800F09B
:1039AC0099F9BB680133BB60BB680D2BF3DD39E0C3
:1039BC00DB000020D4000020D8000020D90000201B
:1039CC000021042000F086F90121032000F082F987
:1039DC000121112000F07EF9154B1B7804330121D5
:1039EC00184600F077F91EE00121042000F072F96E
:1039FC000021032000F06EF90121122000F06AF979
:103A0C000C4B1B7804330121184600F063F90AE0D3
:103A1C0000BF08E000BF06E000BF04E000BF02E00A
:103A2C0000BF00E000BF00BF1037BD4680BD00BF27
:103A3C00D1000020D000002080B500AFFFF708FDBA
:103A4C00FFF7F6FC1B4B1B78022B23D9194B1B7869
:103A5C00052B1FD8184B1B78082B0FD1174B1B7835
:103A6C00012B03D0154B1B78022B1FD1114B1B784C
:103A7C00052B1BD0052000F047F817E00E4B1B78E8
:103A8C00012B13D10B4B1B78042B0FD0042000F00F
:103A9C003BF80BE0074B1B78072B08D9064B1B7820
:103AAC00012B04D1042000F02FF800E000BF00BF70
:103ABC0080BD00BFDB000020DA000020D900002010
:103ACC0080B483B000AF00237B6007E00C4A7B68B6
:103ADC00134400221A707B6801337B607B68072BD0
:103AEC00F4DD084B00225A80064B0022DA80054B8D
:103AFC0000221A8100BF0C37BD4680BC704700BF46
:103B0C00B80000205001002080B582B000AF034601
:103B1C00FB71FB79012B03D1FFF7D2FFFFF7A8FC58
:103B2C00FFF772FC0A4AFB791370FB799BB21B02FC
:103B3C009AB2084B1A80074B00225A81054B00227F
:103B4C009A8100F041F800BF0837BD4680BD00BF28
:103B5C00DB0000205001002080B500AF084B012293
:103B6C001A70FCF745FB0246064B1A60064B4FF4E5
:103B7C007A721A80054B64221A8000BF80BD00BF88
:103B8C00C0000020C4000020CA000020C800002093
:103B9C0080B500AF084B01221A70FCF729FB0246D6
:103BAC00064B1A60064B4FF496721A80054BC822CE
:103BBC001A8000BF80BD00BFC0000020C4000020E0
:103BCC00CA000020C800002080B500AF084B0122BD
:103BDC001A70FCF70DFB0246064B1A60064B41F2BD
:103BEC0088321A80054B64221A8000BF80BD00BF4A
:103BFC00C0000020C4000020CA000020C800002023
:103C0C0080B500AF134B1B78002B1AD0FCF7F0FAE1
:103C1C000246114B1B881946104B1B680B449A42E9
:103C2C0008D20F4B1B881846FFF720F90A20FFF724
:103C3C0039F90CE0074B00221A700020FFF732F91B
:103C4C0005E0044B00221A700020FFF72BF900BF8F
:103C5C0080BD00BFC0000020C8000020C4000020B0
:103C6C00CA00002080B584B000AF786001224FF408
:103C7C0080511648FCF7E1FD7B680233FB60322370
:103C8C000122F9681248FDF733FA7B680133FB60B7
:103C9C0032230122F9680E48FDF72AFA7B68FB6093
:103CAC0032230122F9680A48FDF722FA00224FF468
:103CBC0080510648FCF7C1FD01224FF480510348A6
:103CCC00FCF7BBFD00BF1037BD4680BD000C0140AA
:103CDC00BC02002080B582B000AF78600B46FB7050
:103CEC007B68132B00F2E78101A252F823F000BF8E
:103CFC004D3D0008793D0008A53D0008FD3D00083C
:103D0C00D13D0008293E0008553E0008813E0008C0
:103D1C00AD3E0008D93E0008053F0008313F0008C1
:103D2C005D3F0008893F0008B53F0008E73F0008E9
:103D3C00134000083F4000086B4000089740000803
:103D4C00FB78002B07D09E4B1B7823F00103DAB2D3
:103D5C009B4B1A7006E09A4B1B7843F00103DAB2C6
:103D6C00974B1A709648FFF77DFFA4E1FB78002B68
:103D7C0007D0934B1B7823F00203DAB2904B1A70E6
:103D8C0006E08F4B1B7843F00203DAB28C4B1A70AF
:103D9C008B48FFF767FF8EE1FB78002B07D0884B31
:103DAC001B7823F00403DAB2854B1A7006E0844BBF
:103DBC001B7843F00403DAB2814B1A708048FFF78A
:103DCC0051FF78E1FB78002B07D07D4B5B7803F03B
:103DDC007F03DAB27A4B5A7006E0794B5B7863F06A
:103DEC007F03DAB2764B5A707548FFF73BFF62E1FE
:103DFC00FB78002B07D0724B5B7823F04003DAB2D0
:103E0C006F4B5A7006E06E4B5B7843F04003DAB2AE
:103E1C006B4B5A706A48FFF725FF4CE1FB78002B7F
:103E2C0007D0674B1B7823F00803DAB2644B1A7087
:103E3C0006E0634B1B7843F00803DAB2604B1A7050
:103E4C005F48FFF70FFF36E1FB78002B07D05C4B88
:103E5C005B7823F01003DAB2594B5A7006E0584BDA
:103E6C005B7843F01003DAB2554B5A705448FFF7A5
:103E7C00F9FE20E1FB78002B07D0514B5B7823F047
:103E8C002003DAB24E4B5A7006E04D4B5B7843F090
:103E9C002003DAB24A4B5A704948FFF7E3FE0AE1B5
:103EAC00FB78002B07D0464B1B7823F01003DAB2BB
:103EBC00434B1A7006E0424B1B7843F01003DAB206
:103ECC003F4B1A703E48FFF7CDFEF4E0FB78002B19
:103EDC0007D03B4B5B7823F00403DAB2384B5A70B3
:103EEC0006E0374B5B7843F00403DAB2344B5A707C
:103EFC003348FFF7B7FEDEE0FB78002B07D0304BE2
:103F0C005B7823F00803DAB22D4B5A7006E02C4B89
:103F1C005B7843F00803DAB2294B5A702848FFF754
:103F2C00A1FEC8E0FB78002B07D0254B1B7823F0B3
:103F3C002003DAB2224B1A7006E0214B1B7843F0B7
:103F4C002003DAB21E4B1A701D48FFF78BFEB2E04D
:103F5C00FB78002B07D01A4B5B7823F00103DAB205
:103F6C00174B5A7006E0164B5B7843F00103DAB23C
:103F7C00134B5A701248FFF775FE9CE0FB78002B30
:103F8C0007D00F4B5B7823F00203DAB20C4B5A705C
:103F9C0006E00B4B5B7843F00203DAB2084B5A7025
:103FAC000748FFF75FFE86E0FB78002B0AD0044B36
:103FBC001B7823F04003DAB2014B1A7009E000BF02
:103FCC00080000203E4B1B7843F04003DAB23C4B18
:103FDC001A703B48FFF746FE6DE0FB78002B07D0CC
:103FEC00374B9B7823F00403DAB2354B9A7006E01A
:103FFC00334B9B7843F00403DAB2314B9A70304860
:10400C00FFF730FE57E0FB78002B07D02C4B9B784A
:10401C0023F00803DAB22A4B9A7006E0284B9B78FF
:10402C0043F00803DAB2264B9A702548FFF71AFEC4
:10403C0041E0FB78002B07D0214B1B7803F07F036A
:10404C00DAB21F4B1A7006E01D4B1B7863F07F032E
:10405C00DAB21B4B1A701A48FFF704FE2BE0FB7800
:10406C00002B07D0164B9B7823F00103DAB2144BCC
:10407C009A7006E0124B9B7843F00103DAB2104BB6
:10408C009A700F48FFF7EEFD15E0FB78002B07D078
:10409C000B4B9B7823F00203DAB2094B9A7006E0C3
:1040AC00074B9B7843F00203DAB2054B9A70044835
:1040BC00FFF7D8FD00BF00BF0837BD4680BD00BF6D
:1040CC000800002080B584B000AF0346FB80FCF7ED
:1040DC008FF8B8603B4B1B68BA68D31AB3F5FA7FFC
:1040EC006BD9384ABB6813600023FB731021364828
:1040FC00FCF78CFB0346012B02D10023FB7326E05B
:10410C0008213148FCF782FB0346012B02D1012325
:10411C00FB731CE004212C48FCF778FB0346012BB5
:10412C0002D10223FB7312E002212748FCF76EFB3D
:10413C000346012B02D10323FB7308E00121224823
:10414C00FCF764FB0346012B01D10423FB73FB88B2
:10415C00402B11D0802B02D0202B1AD026E0FB7BD9
:10416C001A4652001344DBB20133DAB2174B1A7001
:10417C00174B00221A7020E0FB7B1A4652001344A6
:10418C00DBB20233DAB2114B1A70114B00221A70E7
:10419C0013E0FB7B0133DBB21A4652001344DAB254
:1041AC000A4B1A700A4B00221A7006E0074B0022C9
:1041BC001A70074B01221A7000BF00BF1037BD46A2
:1041CC0080BD00BFE000002000080140AC000020D2
:1041DC00AD00002080B487B000AF78600B467B80C8
:1041EC0013463B800023FB75224B3B610023FB8174
:1041FC000A23BB81204B1B887B817B88013B7B8006
:10420C007A88FB899A422CD37A883B881A44F9899C
:10421C00BB890B449A4224DC7A887B89D31ABB82F3
:10422C001BE07B685A1C7A60BA8A520039690A44CE
:10423C001288120A92B2D2B21A707B685A1C7A6037
:10424C00BA8A520039690A441288D2B21A70BB8AEF
:10425C000133BB823B88013B3B803B88002BE0D188
:10426C0001E00123FB75FB7D18461C37BD4680BC65
:10427C00704700BF7C010020E800002080B489B0AA
:10428C0000AFF860084611461A4603467B810B4680
:10429C003B811346FB710023FB77394BBB61002339
:1042AC00FB820823BB82374B1B887B827B89013BBB
:1042BC007B817A89FB8A9A4259D37A893B891A4441
:1042CC00F98ABB8A0B449A4251DC7A897B8AD31ACD
:1042DC00BB83FB79002B1ED0012B43D049E0FB683C
:1042EC005A1CFA60BA8B5200B9690A441288120A35
:1042FC0092B2D2B21A70FB685A1CFA60BA8B520096
:10430C00B9690A441288D2B21A70BB8B0133BB83D1
:10431C003B89013B3B813B89002BE0D126E0BB8BE9
:10432C005B00BA691A44FB68591CF9601B789BB294
:10433C001B029BB21380FB685A1CFA601878BB8B6B
:10434C005B00BA691344BA8B5200B9690A441188EC
:10435C0082B20A4392B21A80BB8B0133BB833B8976
:10436C00013B3B813B89002BD9D100BF01E00123EC
:10437C00FB77FB7F18462437BD4680BC704700BFD7
:10438C006C010020EA00002090B58BB000AFF86003
:10439C00084611461A4603467B810B463B81134661
:1043AC00FB71002387F827303B89DB089BB2013374
:1043BC007B844A4BFB6100237B8301233B83484B6B
:1043CC001B88FB827B89013B7B817A897B8B9A42A0
:1043DC007BD37A893B891A44798B3B8B0B449A4269
:1043EC0073DC7A89FB8AD31A9BB2DB08BB847A898B
:1043FC00FB8AD31A9BB203F00703BB82FB79002B19
:10440C0015D0012B45D063E0FC68631CFB60BB8CB2
:10441C005A1CBA841A46FB691344B98A08221846F6
:10442C0000F046FD034623707B8C013B7B847B8C28
:10443C00002BE9D1FB68013BFB603B8903F00703D0
:10444C003B81FB681B781A463B89C3F1080302FACF
:10445C0003F3DAB2FB681A70FB681B781A463B89C7
:10446C00C3F1080342FA03F3DAB2FB681A702BE0CB
:10447C00BB8C5A1CBA841A46FB699818FB685A1CE8
:10448C00FA601B78B98A082200F0B4FC7B8C013BE3
:10449C007B847B8C012BEBD83B8903F007033B819E
:1044AC003B89002B0FD0BB8C5A1CBA841A46FB6973
:1044BC0098183B89DCB2FB685A1CFA601B78B98AE5
:1044CC00224600F097FC00BF02E0012387F827305A
:1044DC0097F8273018462C37BD4690BDA001002018
:1044EC00E600002090B589B000AF78600B467B8069
:1044FC0013463B800023FB773B88DB089BB20133E0
:10450C007B83304B7B6100237B8201233B822E4BD0
:10451C001B88FB817B88013B7B807A887B8A9A4253
:10452C0049D37A883B881A44798A3B8A0B449A424D
:10453C0041DC7A88FB89D31A9BB2DB08BB837A886F
:10454C00FB89D31A9BB203F00703BB8112E07C6892
:10455C00631C7B60BB8B5A1CBA831A467B69134461
:10456C00B9890822184600F0A3FC034623707B8B04
:10457C00013B7B837B8B002BE9D17B68013B7B6010
:10458C003B8803F007033B807B681B781A463B880B
:10459C00C3F1080302FA03F3DAB27B681A707B6882
:1045AC001B781A463B88C3F1080342FA03F3DAB2CC
:1045BC007B681A7001E00123FB77FB7F18462437D8
:1045CC00BD4690BDA4010020E400002080B400AFE3
:1045DC0072B6044B1B680133024A136000BFBD4620
:1045EC0080BC7047EC00002080B400AF064B1B6809
:1045FC00013B054A1360044B1B68002B00D162B6CB
:10460C0000BFBD4680BC7047EC00002080B400AFFA
:10461C0000BFBD4680BC704780B586B000AF7860E7
:10462C0039600023BB753B681B88052B6CD17B68FC
:10463C0001331B789BB21B02BB827B6802331B7855
:10464C009AB2BB8A1343BB82BB8A0133BB827B68A1
:10465C0003331B789BB21B027B827B6804331B7871
:10466C009AB27B8A13437B827B8A002B49D07B8A4C
:10467C00B3F5FA6F45D27B68FB603B6800221A8069
:10468C00FB685A1CFA6001221A703B681B880133C4
:10469C009AB23B681A807B8A03F00703002B06D082
:1046AC007B8ADB089BB2DBB20133FB7503E07B8AB0
:1046BC00DB089BB2FB75FB685A1CFA60FA7D1A701A
:1046CC003B681B8801339AB23B681A807A8AB98A94
:1046DC000023F868FFF758FE0346FB72FB7A002BA9
:1046EC0006D0FB7A184600F01CFC0346BB750DE0A7
:1046FC003B681A88FB7D9BB213449AB23B681A80C4
:10470C0004E00323BB7501E00323BB75BB7D184696
:10471C001837BD4680BD80B584B000AF7860396075
:10472C000023FB733B681B88052B40D17B6801334E
:10473C001B789BB21B02BB817B6802331B789AB23D
:10474C00BB891343BB81BB890133BB817B680433B9
:10475C001B78002B28D17B6803331B78FF2B04D0EC
:10476C007B6803331B78002B1ED100237B727B6884
:10477C0003331B78FF2B02D101233B7201E0002392
:10478C003B72B98907F1080001230122FFF7FCFDF8
:10479C000346FB72FB7A002B0BD0FB7A184600F019
:1047AC00C0FB0346FB7304E00323FB7301E003230C
:1047BC00FB73FB7B18461037BD4680BD80B584B0BB
:1047CC0000AF786039600023BB733B681B88052BF6
:1047DC0054D97B6801331B789BB21B02BB817B686D
:1047EC0002331B789AB2BB891343BB81BB8901335B
:1047FC00BB817B6803331B789BB21B027B817B687C
:10480C0004331B789AB27B8913437B817B685B7979
:10481C007B727B8903F00703002B06D07B89DB08B6
:10482C009BB2DBB20133FB7303E07B89DB089BB2E9
:10483C00FB737B89002B1ED07B89B3F5F66F1AD8DE
:10484C00FA7B7B7A9A4216D17B68981D7A89B98952
:10485C000123FFF799FD03463B723B7A002B06D0F0
:10486C003B7A184600F05DFB0346BB7308E03B68DF
:10487C0005221A8004E00323BB7301E00323BB73FE
:10488C00BB7B18461037BD4680BD80B586B000AFE7
:10489C00786039600023BB753B681B88052B6CD195
:1048AC007B6801331B789BB21B02BB827B68023393
:1048BC001B789AB2BB8A1343BB82BB8A0133BB827F
:1048CC007B6803331B789BB21B027B827B680433AF
:1048DC001B789AB27B8A13437B827B8A002B49D04C
:1048EC007B8AB3F5FA6F45D27B68FB603B6800228C
:1048FC001A80FB685A1CFA6002221A703B681B88EB
:10490C0001339AB23B681A807B8A03F00703002BB1
:10491C0006D07B8ADB089BB2DBB20133FB7503E06C
:10492C007B8ADB089BB2FB75FB685A1CFA60FA7D2C
:10493C001A703B681B8801339AB23B681A807A8ADA
:10494C00BB8A1946F868FFF7CDFD0346FB72FB7A6C
:10495C00002B06D0FB7A184600F0E3FA0346BB7531
:10496C000DE03B681A88FB7D9BB213449AB23B68FE
:10497C001A8004E00323BB7501E00323BB75BB7DE8
:10498C0018461837BD4680BD80B584B000AF78603E
:10499C0039600023FB733B681B88052B22D17B6895
:1049AC0001331B789BB21B02BB817B6802331B78E3
:1049BC009AB2BB891343BB81BB890133BB817B6832
:1049CC00D81CB98901230122FFF758FC0346FB725E
:1049DC00FB7A002B08D0FB7A184600F0A2FA0346AB
:1049EC00FB7301E00323FB73FB7B18461037BD46BA
:1049FC0080BD80B584B000AF786039600023FB7354
:104A0C003B681B88052B46D97B6801331B789BB20E
:104A1C001B02BB817B6802331B789AB2BB891343A0
:104A2C00BB81BB890133BB817B6803331B789BB291
:104A3C001B027B817B6804331B789AB27B891343FE
:104A4C007B817B685B797B727B89002B20D07B8997
:104A5C00782B1DD87B89DBB25B00DBB27A7A9A4269
:104A6C0016D17B68981D7A89B9890123FFF706FC5A
:104A7C0003463B723B7A002B06D03B7A184600F07B
:104A8C0050FA0346FB7308E03B6805221A8004E0E9
:104A9C000323FB7301E00323FB73FB7B18461037E6
:104AAC00BD4680BD80B586B000AF7860396000230C
:104ABC00FB753B681B88052B5CD17B6801331B782D
:104ACC009BB21B02BB827B6802331B789AB2BB8AF7
:104ADC001343BB82BB8A0133BB827B6803331B78D5
:104AEC009BB21B027B827B6804331B787B827B8AA4
:104AFC00002B3CD07B8A7D2B39D87B68FB603B68D4
:104B0C0000221A80FB685A1CFA6003221A703B6858
:104B1C001B8801339AB23B681A80FB685A1CFA60F6
:104B2C007A8AD2B25200D2B21A703B681B88013317
:104B3C009AB23B681A807A8AB98A0023F868FFF720
:104B4C009DFB0346FB72FB7A002B06D0FB7A1846C2
:104B5C0000F0E7F90346FB750EE03B681A887B8A88
:104B6C005B009BB213449AB23B681A8004E00323A7
:104B7C00FB7501E00323FB75FB7D18461837BD461A
:104B8C0080BD80B586B000AF786039600023FB75BE
:104B9C003B681B88092B40F299807B6801331B789A
:104BAC009BB21B02BB827B6802331B789AB2BB8A16
:104BBC001343BB82BB8A0133BB827B6803331B78F4
:104BCC009BB21B027B827B6804331B789AB27B8A74
:104BDC0013437B827B6805331B789BB21B023B82A1
:104BEC007B6806331B789AB23B8A13433B823B8A21
:104BFC0001333B827B6807331B789BB21B02FB8122
:104C0C007B6808331B789AB2FB891343FB817B6862
:104C1C005B7A7B737B8A002B56D07B8A7D2B53D897
:104C2C00FB89002B50D0FB89792B4DD8FB895A007E
:104C3C007B7B9A4248D17B6803F10A00FA89398A56
:104C4C000123FFF71BFB0346BB75BB7D002B31D14A
:104C5C007B68BB603B6800221A80BB685A1CBA6038
:104C6C0017221A703B681B8801339AB23B681A8072
:104C7C00BB685A1CBA607A8AD2B25200D2B21A708D
:104C8C003B681B8801339AB23B681A807A8AB98ACE
:104C9C000023B868FFF7F2FA0346BB75BB7D002B07
:104CAC0008D13B681A887B8A5B009BB213449AB28A
:104CBC003B681A80BB7D002B08D0BB7D184600F0EA
:104CCC0030F90346FB7501E00323FB75FB7D1846A9
:104CDC001837BD4680BD80B586B000AF78603960AE
:104CEC000023FB753B681B88052B5FD17B68013368
:104CFC001B789BB21B02BB827B6802331B789AB277
:104D0C00BB8A1343BB82BB8A0133BB827B680333F0
:104D1C001B789BB21B027B827B6804331B789AB294
:104D2C007B8A13437B827B8A002B3CD07B8A7C2B37
:104D3C0039D87B68FB603B6800221A80FB685A1CE0
:104D4C00FA6004221A703B681B8801339AB23B68E4
:104D5C001A80FB685A1CFA607A8AD2B25200D2B21C
:104D6C001A703B681B8801339AB23B681A807A8AA6
:104D7C00BB8A1946F868FFF72DFA0346FB72FB7ADB
:104D8C00002B06D0FB7A184600F0CBF80346FB75D7
:104D9C000EE03B681A887B8A5B009BB213449AB284
:104DAC003B681A8004E00323FB7501E00323FB75C9
:104DBC00FB7D18461837BD4680BD000080B582B01B
:104DCC0000AF786039607B68581C084B1B881A460A
:104DDC00074901F0D7FA054B1B8801339AB23B689F
:104DEC001A80002318460837BD4680BD10010020EC
:104DFC00F000002080B487B000AF78600846114600
:104E0C001A4603467B800B467B7013463B703B78FF
:104E1C00FB827B88DB08BB82BB8ADB009BB27A8877
:104E2C00D31A7B82FA8A7B8A02FA03F3FB827B78A1
:104E3C00012202FA03F39BB2013B3B823A8A798846
:104E4C00BB8ADB00CB1A02FA03F33B82BB8A7A687B
:104E5C0013441B78FB81BB8A01337A6813441B789B
:104E6C001B021AB2B7F90E3013431BB2FB81B7F910
:104E7C001030DB431AB2B7F90E3013401AB2B7F93F
:104E8C00163013431BB2FB81BB8A7A681344FA8930
:104E9C00D2B21A70BB8A01337A681344FA89120AA7
:104EAC0092B2D2B21A7000BF1C37BD4680BC70479C
:104EBC0080B485B000AF78600B467B8013467B7066
:104ECC007B88DB08FB81FB89DB009BB27A88D31AD9
:104EDC00BB817B78012202FA03F39BB2013B7B81FD
:104EEC00FB897A6813441B783B81FB8901337A6810
:104EFC0013441B781B021AB2B7F9083013431BB2C8
:104F0C003B813A89BB8942FA03F33B813A897B891D
:104F1C0013403B813B89DBB218461437BD4680BC3D
:104F2C00704780B485B000AF0346FB71FB79012B51
:104F3C0006D0072B07D0002B08D10023FB7308E009
:104F4C000223FB7305E00623FB7302E00423FB73CF
:104F5C0000BFFB7B18461437BD4680BC7047000071
:104F6C0080B584B000AF3B600346FB710B46BB7150
:104F7C0013467B710023FB73BB79002B05D0BB79E7
:104F8C00002B02D0BB79F72B02D90223FB733AE03A
:104F9C001F4ABB791370FB79002B21D11D4B1E4A84
:104FAC001A601E4B1E4A1A601E4B1F4A1A601F4B7A
:104FBC001F4A1A601F4B00221A601F4B1F4A1A60AF
:104FCC001F4B204A1A60204B204A1A60104B18784D
:104FDC003B7E79793A6800F043FA0346FB7301E0B3
:104FEC000223FB73FB7B002B0DD100F00BF9034666
:104FFC00002B02D10323FB7305E0154AFB791370D8
:10500C00144B01221A70FB7B18461037BD4680BD2D
:10501C001201002018010020E55400081C0100209A
:10502C000D55000814010020A15500082001002096
:10503C002955000824010020B00100206956000801
:10504C00A801002015570008AC0100209D5700084E
:10505C00130100200B00002080B582B000AF0023AC
:10506C00FB71094B1B78012B06D1084B1B68984729
:10507C00054B00221A7001E00623FB71FB791846E0
:10508C000837BD4680BD00BF0B0000201801002072
:10509C0080B582B000AF0023FB70504B1B78002B07
:1050AC0001D0062395E0BB1C184600F0CDF8034652
:1050BC00012B40F08D80BB78032B00F2898001A27C
:1050CC0052F823F0DD510008E1500008135100089C
:1050DC00DD510008424B1B68424A434943489847FC
:1050EC000346FB70FB78002B6FD1404B1A78404B7A
:1050FC001B789A4203D03D4B1B78002B65D10220C4
:10510C0000F08CF861E0384B1B681A78394B1A7038
:10511C00394B01221A7000237B601FE0374A7B68F1
:10512C0012F83330002B1DD0344A7B6812F8332030
:10513C00304B1B789A420ED1304A7B68DB0013440B
:10514C005B68294A126827491046984703461A4655
:10515C00294B1A7007E07B6801337B607B680F2B4F
:10516C00DCDD00E000BF214B1B78002B2FD0224B45
:10517C001B78002B1DD01B4B00221A801A4B1A686F
:10518C00184B1B88591C88B2164908801344194ABD
:10519C00127862F07F02D2B21A70134B1A68114B5C
:1051AC001B88591C88B20F4908801344124A127884
:1051BC001A70134B1B680E4A10780B4A1168094A77
:1051CC00128898470346FB7001E000BF00E000BF67
:1051DC00002318460837BD4680BD00BF0B000020D9
:1051EC0020010020300100202C010020280100208B
:1051FC001201002032010020330100200C0000209D
:10520C001401002080B400AF034B00221A7001235C
:10521C001846BD4680BC70473501002080B483B071
:10522C0000AF0346FB71064B01221A70054AFB794D
:10523C001370012318460C37BD4680BC704700BF65
:10524C00350100203401002080B485B000AF7860B7
:10525C000023FB73094B1B78002B08D0084B1A78E2
:10526C007B681A70054B00221A700123FB73FB7BC1
:10527C0018461437BD4680BC704700BF350100206E
:10528C003401002080B582B000AF03460A46FB71A2
:10529C001346BB71FB79002B14D000224FF48051C4
:1052AC001E48FBF7CAFA00224FF400611B48FBF7BB
:1052BC00C4FA1B4B1B681A4A1268D26842F02002CF
:1052CC00DA6013E0164B1B68154A1268D26822F09C
:1052DC002002DA6001224FF480511048FBF7ADFA3E
:1052EC0001224FF400610D48FBF7A7FABB79002BA4
:1052FC0008D00B4B1B680A4A1268D26842F0800235
:10530C00DA6007E0064B1B68054A1268D26822F087
:10531C008002DA6000BF0837BD4680BD000801403E
:10532C009403002080B483B000AF396011461A4654
:10533C000346FB710B46BB7113467B710123184668
:10534C000C37BD4680BC704780B582B000AF0346B9
:10535C00FB71F91D0A2301220648FDF756F9034695
:10536C00002B0CBF01230023DBB218460837BD46C7
:10537C0080BD00BF9403002080B483B000AF786080
:10538C00054B1B685B68DAB27B681A700123184600
:10539C000C37BD4680BC70479403002080B483B0AA
:1053AC0000AF0346FB80044AFB8813800123184698
:1053BC000C37BD4680BC70473601002080B500AF6D
:1053CC00044B1A88044B1A800448FCF7E2F800BF1F
:1053DC0080BD00BF360100203801002014030020DE
:1053EC0080B500AF0248FCF7EEF800BF80BD00BFEF
:1053FC001403002080B485B000AF78600B467B802E
:10540C00FF23FB73FF23BB7313E07B685A1C7A608A
:10541C001A78BB7B5340DBB2BB600F4ABB681344AA
:10542C001A78FB7B5340BB730C4ABB6813441B7844
:10543C00FB737B885A1E7A80002BE6D1FB7B1B0208
:10544C001AB2BB7B1BB213431BB29BB21846143768
:10545C00BD4680BC704700BFE4630008E4640008EC
:10546C0080B584B000AF3A601A460346FB710B4618
:10547C00BB7113467B710023FB73FFF7A7F87B7995
:10548C00B87908223968FFF74DFF0346012B02D08B
:10549C000323FB7316E03B68B3F5964F02D9232325
:1054AC00BB6005E03B685B000A4AB2FBF3F3BB60F0
:1054BC00BB689BB21846FFF771FF0346012B01D066
:1054CC000323FB73FFF790F8FB7B18461037BD46A0
:1054DC0080BD00BFA07F170080B500AFFFF776F846
:1054EC00064B00221A7000210120FFF7CBFEFFF7BC
:1054FC0065FFFFF779F800BF80BD00BF3B010020BE
:10550C0080B500AFFFF762F800210020FFF7BAFE6C
:10551C00FFF766FFFFF768F800BF80BD80B586B067
:10552C0000AFF860B9607A600023BB750023FB758F
:10553C00FFF74CF8144B1B889BB2032B1BD9124B57
:10554C001B889BB219461148FFF754FF0346002BEA
:10555C0011D10E4B1B78DAB2FB681A700A4B1B8800
:10556C009BB2033B9AB27B681A80BB68084A1A60EC
:10557C000123BB7501E00523FB75FFF735F8FB7DB7
:10558C0018461837BD4680BD42010020BC010020E2
:10559C00BD01002080B584B000AF03463960FB71BB
:1055AC001346BB800023FB73FFF710F8264B1B78C8
:1055BC00DBB2012B3FD13B68013B244A1360244BE7
:1055CC0001221A80214B1B68FA791A70204B1B8818
:1055DC009AB2BB8813449AB21D4B1A801B4B1A68A3
:1055EC001B4B1B889BB219461046FFF703FF034663
:1055FC00BB81174B1B889BB25A1C91B2144A118069
:10560C001A46BB89D9B2134B9954114B1B889BB2C8
:10561C005A1C91B20E4A11801A46BB891B0A9BB2C6
:10562C00D9B20C4B99540C4B01221A700121002059
:10563C00FFF728FE01E00523FB73FEF7D5FFFB7B8C
:10564C0018461037BD4680BD3B0100203C010020B0
:10565C0040010020BC0100203A01002080B582B03E
:10566C0000AF0023FB71BB1D1846FFF785FE234BD3
:10567C001B78DBB2032B3CD801A252F823F000BFFD
:10568C009D560008A9560008D1560008A3560008DC
:10569C00FFF794FE2DE0FFF791FE2AE0184B002255
:1056AC001A80174B1B889BB25A1C91B2144A11805A
:1056BC001A46B979134B9954104B02221A70FFF702
:1056CC007DFE16E00E4B1B889BB2FF2B0BD80C4BB0
:1056DC001B889BB25A1C91B2094A11801A46B9799F
:1056EC00084B995402E0054B03221A70FFF766FE33
:1056FC0000BFFB7918460837BD4680BD3B01002032
:10570C0042010020BC01002080B582B000AF002314
:10571C00FB711C4B1B78DBB2002B02D0012B05D08C
:10572C002AE000210120FFF7ADFD25E0164B1B8878
:10573C009BB2002B13D0154B1B681B78DBB21846A1
:10574C00FFF702FE114B1B680133104A13600E4B1E
:10575C001B889BB2013B9AB20B4B1A800BE00320C7
:10576C00FFF75CFD0346FB7100210120FFF78AFD6A
:10577C00044B00221A7000BFFB7918460837BD464F
:10578C0080BD00BF3A010020400100203C010020F8
:10579C0080B582B000AF0023FB71104B1B78DBB2DD
:1057AC00022B09D0032B0DD0002B0CD10020FFF7BE
:1057BC0035FD0346FB7106E00120FFF72FFD034684
:1057CC00FB7100E000BFFFF70BFE044B01221A70C7
:1057DC00FB7918460837BD4680BD00BF3B01002051
:1057EC0080B586B000AF78607B68BB60022000F0AB
:1057FC0063FDBB681868BB689B8800221946FBF7E1
:10580C001CF84FF4FA7000F057FD7B68FB60FB68E6
:10581C001868FB689B8801221946FBF70EF81E20BE
:10582C0000F04AFD7B683B613B691A683B699B88C9
:10583C0019461046FAF7EAFF0346FB75F02000F014
:10584C003BFDFB7D83F00103DBB218461837BD46E8
:10585C0080BD80B586B000AF78600B46FB707B686E
:10586C00BB60022000F028FDBB681868BB689B88F1
:10587C0000221946FAF7E1FF022000F01DFD7B68BB
:10588C003B61FB78FB733B6918683B699B88FA7B2F
:10589C001946FAF7D2FF3A2000F00EFD7B687B61C7
:1058AC007B6918687B699B8801221946FAF7C5FF4A
:1058BC0000BF1837BD4680BD80B586B000AF78609C
:1058CC007B68BB60022000F0F7FCBB681868BB6803
:1058DC009B8800221946FAF7B0FF022000F0ECFC7E
:1058EC007B68FB60FB681868FB689B880122194683
:1058FC00FAF7A3FF0A2000F0DFFC7B683B613B69F1
:10590C001A683B699B8819461046FAF77FFF0346D5
:10591C00FB75302000F0D0FCFB7D18461837BD46D7
:10592C0080BD80B584B000AF78600B46FB7000235F
:10593C00FB730DE0FB7803F00103DBB219467868CA
:10594C00FFF787FFFB785B08FB70FB7B0133FB7376
:10595C00FB7B072BEED900BF1037BD4680BD80B551
:10596C0084B000AF78600023FB730723BB737868A7
:10597C00FFF7A2FF0346002B03D0FB7B63F07F03F2
:10598C00FB73BB7B002B06D0BB7B013BBB73FB7B50
:10599C005B08FB73EBE700BFFB7B18461037BD467B
:1059AC0080BD90B587B000AFF860B9607A60002315
:1059BC007B610AE0BA687B69D418F868FFF7CFFFFF
:1059CC00034623707B6901337B617A697B689A4259
:1059DC00F0D300BF1C37BD4690BD80B485B000AF7E
:1059EC0003460A46FB711346BB71FA79BB795340E7
:1059FC00FB710023FB7312E0FB7903F00103002B16
:105A0C0007D0FB795B08DBB283F07303DB43FB71DC
:105A1C0002E0FB795B08FB71FB7B0133FB73FB7BC7
:105A2C00072BE9D9FB7918461437BD4680BC704763
:105A3C0080B584B000AF786039600023FB60002330
:105A4C00FB720023FB600DE07A68FB6813441A7844
:105A5C00FB7A11461846FFF7C0FF0346FB72FB6842
:105A6C000133FB60FA683B689A42EDD3FB7A184627
:105A7C001037BD4680BD80B584B000AF786039600A
:105A8C000023FB7333217868FFF74BFF082239683A
:105A9C007868FFF786FF07213868FFF7C9FF0346D0
:105AAC00FB733B68DB79FA7B9A4201D06F2300E0F1
:105ABC00002318461037BD4680BD000080B500AFEE
:105ACC00184B194A1A60174B4FF482725A60154BD7
